:020000040800F2
:1000000000000220390A00082D0A00086DA000082F
:100010002D0A00082D0A00082D0A00080000000023
:100020000000000000000000000000002D0A000891
:100030002D0A0008000000002D0A0008F19F0008AA
:100040002D0A00082D0A00082D0A00082D0A0008B4
:100050002D0A00082D0A00082D0A00082D0A0008A4
:100060002D0A00082D0A00082D0A000859860008EC
:1000700065860008C56D0008718600087D86000849
:100080002D7D0108857700082D0A00082D0A00083B
:100090002D0A00082D0A00082D0A00082D0A000864
:1000A0002D0A00082D0A00082D0A00082D0A000854
:1000B000AD6E0108B96E0108C56E0108B977000878
:1000C0002D0A0008C57700082D0A0008E9980008E5
:1000D000F5980008617B01088D7B0108C17B010850
:1000E0002D0A00082D0A0008000000002D0A000853
:1000F0002D0A00082D0A00082D0A00082D0A000804
:100100002D0A0008D18B0008D16E01080199000862
:10011000F57B0108297C01082D0A00082D0A00083A
:100120002D0A00082D0A0008259900085999000891
:10013000617D01082D0A00082D0A00082D0A00081B
:1001400000000000000000000000000000000000AF
:100150002D0A00082D0A00082D0A00085D7C010800
:10016000D17700082D0A000801A0000825A000088A
:100170002D0A000849A000082D0A00082D0A0008D1
:100180002D0A00082D0A0008917C0108C57C010891
:100190000D990008199900082D0A00082D0A000879
:1001A0002D0A00082D0A00082D0A00082D0A000853
:1001B0004D8300082D0A00082D0A00082D0A0008AA
:1001C0002D0A00082D0A0008A5A00108B1A0010809
:1001D0002D0A0008BDA001082D0A00082D0A0008FC
:1001E0002D0A00082D0A00082D0A00082D0A000813
:1001F0002D0A00082D0A00082D0A00082D0A000803
:100200002D0A00082D0A00082D0A00082D0A0008F2
:100210002D0A00082D0A00082D0A00082D0A0008E2
:100220002D0A00082D0A00082D0A00080000000011
:100230002D0A00082D0A0008000000002D0A000801
:100240002D0A00082D0A00082D0A00082D0A0008B2
:100250002D0A00082D0A00082D0A00082D0A0008A2
:100260002D0A00082D0A00082D0A00082D0A000892
:100270002D0A00082D0A0008F97C01080000000082
:100280002D0A00082D0A00082D0A000800000000B1
:08029000000000002D0A000827
:1002A00010B5054C237833B9044B13B10448AFF3B0
:1002B00000800123237010BD100400240000000002
:1002C00064E6010808B5034B1BB103490348AFF3CB
:1002D000008008BD000000001404002464E601084A
:1002E00010F8012B11F8013B012A28BF9A42F7D0E0
:1002F000D01A7047034613F8012B002AFBD1181AB5
:1003000001387047000000000000000000000000FD
:1003100001F0FF01102A2BDB10F0070F08D010F8B6
:10032000013B013A8B422DD010F0070F42B3F6D1BA
:10033000F0B441EA012141EA014122F007047FF0D3
:1003400000070023F0E80256083C85EA010586EA2A
:10035000010685FA47F5A3FA87F586FA47F6A5FA66
:1003600087F68EB9EED1F0BC01F0FF0102F0070272
:1003700032B110F8013B013A83EA010313B1F8D11D
:100380000020704701387047002D06BF35460338FE
:10039000073815F0010F07D1013015F4807F02BF37
:1003A000013015F4C03F0130F0BC0138704700BF88
:1003B00081F0004102E000BF83F0004330B54FEA16
:1003C00041044FEA430594EA050F08BF90EA020F83
:1003D0001FBF54EA000C55EA020C7FEA645C7FEA16
:1003E000655C00F0E2804FEA5454D4EB5555B8BF39
:1003F0006D420CDD2C4480EA020281EA030382EAAA
:10040000000083EA010180EA020281EA0303362D3B
:1004100088BF30BD11F0004F4FEA01314FF4801C0E
:100420004CEA113102D0404261EB410113F0004F20
:100430004FEA03334CEA133302D0524263EB4303D7
:1004400094EA050F00F0A780A4F10104D5F1200E75
:100450000DDB02FA0EFC22FA05F2801841F10001D0
:1004600003FA0EF2801843FA05F359410EE0A5F1A4
:1004700020050EF1200E012A03FA0EFC28BF4CF0D5
:10048000020C43FA05F3C01851EBE37101F000458B
:1004900007D54FF0000EDCF1000C7EEB00006EEB98
:1004A0000101B1F5801F1BD3B1F5001F0CD3490822
:1004B0005FEA30004FEA3C0C04F101044FEA445279
:1004C00012F5800F80F09A80BCF1004F08BF5FEA00
:1004D000500C50F1000041EB045141EA050130BDE0
:1004E0005FEA4C0C404141EB0101013C28BFB1F5F2
:1004F000801FE9D291F0000F04BF01460020B1FA3D
:1005000081F308BF2033A3F10B03B3F120020CDA0F
:100510000C3208DD02F1140CC2F10C0201FA0CF0ED
:1005200021FA02F10CE002F11402D8BFC2F1200C52
:1005300001FA02F120FA0CFCDCBF41EA0C01904008
:10054000E41AA2BF01EB0451294330BD6FEA040451
:100550001F3C1CDA0C340EDC04F11404C4F120023C
:1005600020FA04F001FA02F340EA030021FA04F34E
:1005700045EA030130BDC4F10C04C4F1200220FAA5
:1005800002F001FA04F340EA0300294630BD21FAE3
:1005900004F0294630BD94F0000F83F4801306BFA9
:1005A00081F480110134013D4EE77FEA645C18BF9D
:1005B0007FEA655C29D094EA050F08BF90EA020F34
:1005C00005D054EA000C04BF1946104630BD91EA2C
:1005D000030F1EBF0021002030BD5FEA545C05D12F
:1005E0004000494128BF41F0004130BD14F580046E
:1005F0003CBF01F5801130BD01F0004545F0FE41E2
:1006000041F470014FF0000030BD7FEA645C1ABF16
:10061000194610467FEA655C1CBF0B46024650EA4D
:10062000013406BF52EA033591EA030F41F4002179
:1006300030BD00BF90F0000F04BF0021704730B5FF
:100640004FF4806404F132044FF000054FF00001D4
:1006500050E700BF90F0000F04BF0021704730B595
:100660004FF4806404F1320410F0004548BF40426A
:100670004FF000013EE700BF42004FEAE2014FEABF
:1006800031014FEA02701FBF12F07F4393F07F4F9A
:1006900081F06051704732F07F4208BF704793F09D
:1006A0007F4F04BF41F40021704730B54FF46074B0
:1006B00001F0004521F000411CE700BF50EA0102B3
:1006C00008BF704730B54FF000050AE050EA01025C
:1006D00008BF704730B511F0004502D5404261EBCC
:1006E00041014FF4806404F132045FEA915C3FF40D
:1006F000D8AE4FF003025FEADC0C18BF03325FEAAA
:10070000DC0C18BF033202EBDC02C2F1200300FA5A
:1007100003FC20FA02F001FA03FE40EA0E0021FA7F
:1007200002F11444BDE600BF53B94AB9002908BF1D
:1007300000281CBF4FF0FF314FF0FF3000F074B9BC
:10074000ADF1080C6DE904CE00F006F8DDF804E028
:10075000DDE9022304B070472DE9F047089D044607
:100760008E46002B4DD18A42944669D9B2FA82F264
:1007700052B101FA02F3C2F1200120FA01F10CFAA0
:1007800002FC41EA030E94404FEA1C48210CBEFBD8
:10079000F8F61FFA8CF708FB16E341EA034306FB61
:1007A00007F199420AD91CEB030306F1FF3080F0F0
:1007B0001F81994240F21C81023E63445B1AA4B23D
:1007C000B3FBF8F008FB103344EA034400FB07F7DF
:1007D000A7420AD91CEB040400F1FF3380F00A8120
:1007E000A74240F207816444023840EA0640E41B15
:1007F00000261DB1D4400023C5E900433146BDE8C1
:10080000F0878B4209D9002D00F0EF800026C5E962
:10081000000130463146BDE8F087B3FA83F6002E7A
:100820004AD18B4202D3824200F2F980841A61EBF2
:10083000030301209E46002DE0D0C5E9004EDDE710
:1008400002B9FFDEB2FA82F2002A40F09280A1EBF8
:100850000C014FEA1C471FFA8CFE0126200CB1FB4D
:10086000F7F307FB131140EA01410EFB03F0884246
:1008700008D91CEB010103F1FF3802D2884200F2D3
:10088000CB804346091AA4B2B1FBF7F007FB101165
:1008900044EA01440EFB00FEA64508D91CEB040403
:1008A00000F1FF3102D2A64500F2BB800846A4EB5E
:1008B0000E0440EA03409CE7C6F12007B34022FA49
:1008C00007FC4CEA030C20FA07F401FA06F31C4378
:1008D000F9404FEA1C4900FA06F3B1FBF9F8200C85
:1008E0001FFA8CFE09FB181140EA014108FB0EF0CB
:1008F000884202FA06F20BD91CEB010108F1FF3A1B
:1009000080F08880884240F28580A8F10208614426
:10091000091AA4B2B1FBF9F009FB101144EA014134
:1009200000FB0EFE8E4508D91CEB010100F1FF34DF
:100930006CD28E456AD90238614440EA0840A0FB77
:100940000294A1EB0E01A142C846A64656D353D04D
:100950005DB1B3EB080261EB0E0101FA07F722FA71
:1009600006F3F1401F43C5E9007100263146BDE89A
:10097000F087C2F12003D8400CFA02FC21FA03F3FD
:10098000914001434FEA1C471FFA8CFEB3FBF7F07E
:1009900007FB10360B0C43EA064300FB0EF69E42A3
:1009A00004FA02F408D91CEB030300F1FF382FD23C
:1009B0009E422DD9023863449B1B89B2B3FBF7F6E4
:1009C00007FB163341EA034106FB0EF38B4208D9BD
:1009D0001CEB010106F1FF3816D28B4214D9023EFE
:1009E0006144C91A46EA004638E72E46284605E71C
:1009F0000646E3E61846F8E64B45A9D2B9EB0208ED
:100A000064EB0C0E0138A3E74646EAE7204694E77C
:100A10004046D1E7D0467BE7023B614432E73046AF
:100A200009E76444023842E7704700BF684620F097
:100A300007018D46FEE7000009480A4A0A49121AD2
:100A400008B519F09BFD0948094A0021121A19F04E
:100A5000A3FD09F071FD19F05DFD01F06DFEFEE7EB
:100A60000000002410040024A4E60108100400245F
:100A700074110724034B1A1803EB80035B68107B87
:100A80005B6818473C060024064B1A5C42B90122F9
:100A90001A541A1803EB8003107B5B681B68184715
:100AA000002070473C06002430B4054C251804EBA8
:100AB000800460688468287BA44630BC604700BF1F
:100AC0003C06002430B4054C251804EB8004606813
:100AD000C468287BA44630BC604700BF3C060024A5
:100AE000054B10B41C1803EB80035B68207B1B696B
:100AF0005DF8044B184700BF3C06002400687047AF
:100B00000B0A017043700B0C090E8370C1707047A3
:100B1000024400F8011B9042FBD17047C3690239BF
:100B2000023B8B4283BF4389006B01FB0300002023
:100B300070470268490A836A52890433B1FBF2F1B3
:100B4000186830B1814202D3091A0833F8E75868AF
:100B500008447047C2F307238A76CB760378032BC9
:100B600001BF120C0A75120A4A75704700F10B0199
:100B70000022D30143EA520310F8012B52FA83F307
:100B80008842DAB2F5D1104670470000036801468A
:100B900010B553B11846024610F8014B1F2C10D95E
:100BA0003A2CF8D1581C824202D04FF0FF3007E0B7
:100BB0001B78303BD8B20128F7D8013218460A60BA
:100BC00010BD014B1878FBE72C04002438B50D4606
:100BD000044618B9092000232B6038BD0368002B98
:100BE000F8D01A78002AF5D08188DA889142F1D1BC
:100BF0005878FFF73FFF10F00100EBD12368EBE7D7
:100C00002DE9F0410025D0F8008006460C468D7590
:100C10008369002B59D0C36A01330AD001F116074A
:100C2000D8F80C3033F81500002850D125440023A3
:100C3000AB75F1690023A57D2E274E1E184616F8C8
:100C4000012F0130202A26D0052A08BFE5220928D5
:100C500007D104EB030C0DB98CF8167001338CF836
:100C6000097004EB030C8CF809209DB9A2F1410E28
:100C7000BEF1190F0CD8082891F80C808CBF4FF0EA
:100C8000100E4FF0080E18EA0E0F1CBF2032D2B221
:100C90008CF8162001330B28D1D12DB9E2189575A7
:100CA0000A7B002A08BF00232344002201F11C0014
:100CB0005A72CB7A2372FFF721FF206001F11600F0
:100CC000FFF71CFFE080000CA080BDE8F081002150
:100CD00001F0A6FB30B10135B5F5807F02D007F8F1
:100CE000010B9DE70025A1E701380A4411F8013BFB
:100CF000914200F8013FF9D170472DE9F041466B70
:100D000000F1380804460123324641464078FFF797
:100D1000D9FE0546A8B9A36A226AF31AE070934285
:100D200002D2A778012F02D82846BDE8F081236AB5
:100D300041466078013F1E4401233246FFF7C2FE60
:100D4000F0E70125F0E7C3780BB1FFF7D6BF1846EF
:100D5000704738B5436B05460C468B4210D0FFF701
:100D6000F2FF60B92246012305F138016878FFF7E8
:100D70009BFE00281CBF4FF0FF3401206C6338BD80
:100D80000020FCE7002310B5C3704FF0FF3304468A
:100D90004363FFF7DEFF034618BBB4F836124AF68A
:100DA000552291421FD194F83820E92A05D0A26B30
:100DB0000F4902F0FF128A4217D104F16E000D4A6A
:100DC000FFF79CFE20F07F40904208D002F14C5289
:100DD00004F18A00FFF792FE904218BF02231846E2
:100DE00010BD0423FBE70323F9E70223F7E700BF65
:100DF000EB009000464154002DE9FF4100230F46CF
:100E000015460B60FFF7C2FE061EC0F213818C4B25
:100E100053F82640002C00F00F813C6005F0FE05E1
:100E200023786BB16078FFF725FEC10708D41DB1A8
:100E300010F0040500D00A25284604B0BDE8F08172
:100E40000023F0B223706070FFF71EFEC20700F1AE
:100E5000F5800DB14307EED400212046FFF792FF45
:100E6000022840F0CC806F4604F5FF7304F23E2167
:100E70003A4613F8040C10B11846FFF73FFE103342
:100E800042F8040B8B42F4D1002557F8046B002E76
:100E900000F0AC8031462046FFF774FF012800F2D5
:100EA000A680B4F84330B3F5007F40F0AC80B4F8CE
:100EB0004E1021B904F15C00FFF720FE014694F8C2
:100EC000483021625A1EA370012A00F29C8094F8D7
:100ED00045506581002D00F096806A1E2A4240F040
:100EE0009280B4F8498018F00F0FA4F8088040F001
:100EF0008A80B4F84B0018B904F15800FFF7FEFDE2
:100F0000B4F84670002F7ED001FB03FE07EB181CDF
:100F1000F444604577D3A0EB0C02AA42B2FBF5F390
:100F200071D34FF6F572934271D840F6F575AB4226
:100F30008CBF02250125023337440CEB0602032D3A
:100F4000E3616662A762226363D1B4F8622052EA69
:100F5000080258D19B0004F16400FFF7CFFDE06266
:100F600003F2FF13B1EB532F4DD34FF0FF33032D9B
:100F7000C4E904334FF0800323712BD1B4F86830F7
:100F8000012B27D1711C2046FFF7E3FE10BBB4F8FC
:100F900036224AF6552320719A421BD1294B04F17F
:100FA0003800FFF7ABFD984214D103F1FF5304F56D
:100FB0000770FFF7A3FD03F500532033984209D1D2
:100FC00004F50870FFF79AFD606104F50970FFF7FA
:100FD00095FD20611C4A257000251388A561013309
:100FE0009BB21380E380194BE36025E703200135B2
:100FF000042D7FF44AAF042805D101251CE70428FD
:10100000FBD0012801D90D2516E7002649E7032565
:1010100091E7B8F1000FF6D0022D4FEA4302774472
:101020001ABFD21803F001031346E76218BF03EB9F
:10103000520395E70B25FFE60C25FDE60325FBE6AD
:101040003004002452526141380400243A04002440
:1010500001292DE9F04706460C46174674D9C369A5
:101060008B4271D90378022B40D0032B51D0012B36
:101070006AD101EB5108816A01EB5821FFF769FE43
:10108000054640BB14F0010406F1380908F1010AD5
:10109000C8F3080808BFFBB230461FBF19F8083074
:1010A00003F00F023B0103F0F00318BF134309F8EC
:1010B00008300123B16AF37001EB5A21FFF749FEB2
:1010C000054640B9CAF3080A44B1C7F3071709F83F
:1010D0000A700123F3702846BDE8F08719F80A303A
:1010E000C7F3032723F00F031F43F0E7816A01EBE7
:1010F0001421FFF72EFE05460028ECD1640006F10E
:10110000380304F4FF741F551819C7F307274770F5
:10111000DFE7816A01EBD411FFF71BFE05460028CB
:10112000D9D1A40006F1380327F0704704F4FE7407
:101130001C442046FFF7E2FC00F0704047EA000143
:101140002046FFF7DDFCC4E70225C4E7F8B50446F6
:10115000FFF7F9FD0546002842D12378032B37D14C
:101160002779012F34D104F13806552301464FF475
:1011700000723046FFF7CCFC84F83632AA234122B5
:10118000722104F5087084F83732522384F83B202A
:1011900084F8383084F83930612384F81C1284F8DC
:1011A0003A3084F81F3284F81D1284F81E226169D7
:1011B000FFF7A6FC216904F50970FFF7A1FC626A3C
:1011C0003B463146013260786263FFF77BFC257154
:1011D000002260781146FFF783FC003818BF012019
:1011E000F8BD03284B8B04BF8A8A43EA02431846A2
:1011F00070470129F8B506460C464ED9C369994295
:101200004BD20378022B29D0032B34D0012B44D1AD
:1012100001EB5105816A01EB5521FFF79AFD10B1F1
:101220004FF0FF30F8BD6F1CC5F30805B16A3046BA
:10123000354401EB572195F83850FFF78AFD002817
:10124000EED1C7F30807E3073E4496F8380045EAB5
:1012500000204CBF0009C0F30B00E3E7816A01EBFB
:101260001421FFF776FD0028DAD1640004F4FF743E
:101270002644308FD6E7816A01EBD411FFF769FD70
:101280000028CDD1A40006F1380004F4FE742044F7
:10129000FFF734FC20F07040C4E70120C2E737B507
:1012A0000C4605461146012C2BD9C3699C4228D215
:1012B00022B14FF0FF32FFF7CBFE40B9214628465E
:1012C0000194FFF796FF0199044610B9002003B07E
:1012D00030BD012815D0431C15D000222846FFF749
:1012E000B7FE0028F3D1EA696B69911E8B4205D2E3
:1012F00001336B612B7943F001032B719442DDD3F1
:10130000E4E70220E3E70120E1E7F8B505460F46F0
:1013100071B90669DEB1C3699E4228BF0126344611
:101320000134EB699C4215D3012E12D8002405E04C
:10133000FFF75FFF0128044602D801242046F8BDCC
:10134000431C2FD0EB699842F8D33E46E7E70126CD
:10135000E5E7022421462846FFF74BFF30B101287C
:10136000EBD001301ED0A642DAD1DFE74FF0FF32DA
:1013700021462846FFF76CFE90B957B9EA696B69B8
:10138000023A2C61934210D92B7943F001032B715F
:10139000D4E7224639462846FFF75AFE0028EDD00A
:1013A0000128CAD14FF0FF34C8E7013B6B61EBE77E
:1013B000B1F5001FF8B506460C4601D30220F8BD72
:1013C000CA06FBD1826805680161CAB92B78022B75
:1013D00001D9EB6A9BB92B89B3EB541FEED9EB6AA9
:1013E000B361B3697261002BE8D003EB5423383545
:1013F000C4F308040020B3612C44F461DFE71A460B
:101400006F897F02BC42114604D22846FFF786FB53
:10141000B061E6E73068FFF7ECFE431C024606D0F9
:101420000128CBD9EB698342C8D9E41BEAE7012044
:10143000C5E703692DE9F04703F1200883690546F4
:101440008A4693B1B8F5001F0FD2C8F308090468A3
:10145000B9F1000F4DD101334169836139B9238955
:10146000B3EB581F45D80023AB6104200BE067891C
:10147000013F17EA58273CD12046FFF7BAFE012862
:10148000064602D80220BDE8F087421C01D10120A7
:10149000F9E7E369834226D8BAF1000FE3D069691E
:1014A0002868FFF732FF0646002835D00128E9D02A
:1014B000431CECD02046FFF746FC01460028E6D14D
:1014C00004F138004FF400724FF0010AFFF720FBDF
:1014D00031462046FFF722FB606363899F420FD3AA
:1014E000636BDB1B6363314620466E61FFF716FBBF
:1014F000A86138340020C5F810804C44EC61C2E784
:10150000204684F803A0FFF7F8FB0028BFD1636BE7
:10151000013701336363E0E70720B4E72DE9F04FBB
:10152000002185B00446D0F800B0FFF741FF064621
:10153000002840F098804FF0FF084FF0FF3AC14676
:10154000C4F82CA0A1695846FFF703FC0646002802
:1015500040F08980E5692F78002F00F08880EA7AD2
:10156000E52F02F03F03A37103D0100704D50F2B22
:1015700004D0C4F82CA050E00F2B56D194F82B3097
:10158000590640D47A0646D5236907F0BF0795F877
:101590000D80E3626B7B43453FD16B8B002B3CD1CD
:1015A0002E780122DBF80C3006F03F06DFF8C890F9
:1015B00000930D23013E5E4319F8013BEB5A7AB3C9
:1015C000FE2E2AD81846039300F048FF009B711C9A
:1015D000029033F81600019100F040FF029A824217
:1015E0001BD1039B01991A460E46224B9945E3D124
:1015F0002B785B0604D51AB1009B33F8163063B91B
:10160000013F5FFA87F900212046FFF712FF0646E7
:10161000002897D027E0B945BCD04FF0FF09F2E78A
:101620004FF6FF718B42E0D0F7E7B9F1000F04D11C
:101630002846FFF79BFA404515D094F82B6016F02A
:10164000010696D104F1200205F10B0115F8013BCA
:1016500012F8010B8D42A3EB000302D0002BF5D052
:1016600087E7002B85D1304605B0BDE8F08F042612
:10167000F9E700BFBFBC0108B2BC01082DE9F04F7B
:1016800090F82B5089B0044615F0A00540F08C80EE
:101690000668F26832F81530002B64D104F1200797
:1016A0000C2205A83946FFF71FFB9DF81F30DB070A
:1016B00040F1838040234FF0010ADFF8308284F844
:1016C0002B300B2205A93846D6F80C90FFF70CFBFF
:1016D000BAF1050F57D9A9F10201534631F8022F8B
:1016E000002A42D10DF11300072203F00F0C013A3A
:1016F0000CF13001392988BF0CF137010F2B00F8AC
:1017000001194FEA131140D808AB7E21134403F8A6
:10171000141C394600239A4205D011F8010B03F13D
:10172000010C202833D104F11F00072A03F1010323
:1017300097BF08A920218918013298BF11F8141CFD
:10174000072BC154F1D92046FFF7E8FE814670BB54
:101750000AF1010ABAF1640FB3D14FF00709484604
:1017600009B0BDE8F08F013594E7102002F0010CBC
:1017700052080CEB430313F4803F18BF83EA0803BD
:101780000138F3D1AAE75346ACE70B46ADE7634611
:10179000C1E7804601212046FFF74BFE814608B392
:1017A000B9F1040FD9D0DAE74FF00609D7E70428DA
:1017B000D5D19DF81F3084F82B309DF81F300021C3
:1017C0002046D4F800A09B0745BF0C350D2301250A
:1017D000B5FBF3F548BF0135FFF7EAFD8146002868
:1017E000DED18046A1695046FFF7B3FA8146002852
:1017F000D6D1E3691B78E52B01D0002BC9D108F1C4
:1018000001084545C6D1013D55D021692046A1EBCF
:101810004511FFF7CDFD81460028A0D14FF6FF7896
:101820003846FFF7A3F90190A1693046FFF791FA16
:101830008146002893D1E369E9B2019A4FF00D0C7B
:10184000D6F80CE05A734FF00F02DFF8A4A0DA725A
:101850004A1E18730CFB02F284469876D8764045EF
:101860001AF8019B0CF1010C18BF3EF8120003EBB3
:10187000090B18BF013203F809004FEA10290028AC
:1018800008BF4046BCF10D0F8BF80190E7D14045F1
:1018900002D03EF812200AB941F04001197001232C
:1018A00000212046F370FFF7C4FD814600287FF435
:1018B00056AF013DB8D1A1693046FFF74AFA8146DB
:1018C00000287FF44CAF01462022E069FFF720F9A1
:1018D0000B223946E069FFF707FA94F82B30E269EA
:1018E00003F0180313730123F37038E7211001008C
:1018F000B2BC01082DE9F843FF270646D0F8008066
:1019000004253C464FF6FF79B16911B9002D5FD02F
:101910004FE04046FFF71DFA0546002849D1F0691F
:101920000378002B5CD0C27AE52B02F03F02B27143
:1019300044D02E2B42D022F0200108293ED00F2A7D
:1019400041D1590638D503F0BF043369477BF362B0
:10195000437BBB4232D1428B82BB03780D21D8F846
:101960000C504FF0010E23F04003DFF878C0013B2C
:101970004B431CF8011B415ABEF1000F20D0FE2B37
:101980001CD825F813108E46013301320D2AF0D1F0
:101990000278520604D5FE2B10D8002225F8132019
:1019A000013CE4B200213046FFF743FD0546002824
:1019B000AAD00023B3610CE0A342C9D0FF24F1E711
:1019C0004945E2D0FAE73CB9FFF7D0F8B84203D175
:1019D00000252846BDE8F8834FF0FF33F362F8E7AF
:1019E0000425E6E7B2BC01082DE9F74F0B78054660
:1019F0008846D0F800B02F2B01D05C2B09D142468D
:101A00001378904601322F2BFAD05C2BF8D00023AC
:101A100001E0DBF81830AB6098F800301F2B00F2C3
:101A2000D88080230021284685F82B3003B0BDE8FC
:101A3000F04FFFF7BDBC0134DEE0B4F5807F0093CA
:101A40000CD0012100F0ECFC40B17F28009B07D8AE
:101A50008F4911F8012B1AB18242FAD1062005E113
:101A600026462AF8020FBDE0022E04D1B9F8023052
:101A70002E2B00F0D1805EBB002329F81630002EFB
:101A8000ECD020210B226818FFF742F8194639F8EC
:101A90001130202B24D02E2B22D009B144F0030486
:101AA00037F816302E2B01D0013EF9D100234FF02C
:101AB000080A1F4639F811004A1C10B3202803D029
:101AC0002E280FD1B24211D044F003041146F1E7A1
:101AD00037F81630202B01D02E2BCDD1013ECAE78E
:101AE0000131D4E7534505D2B2423AD1BAF10B0FD6
:101AF00030D102E0BAF10B0F27D144F003044FF0CC
:101B00000B0A95F82030E52B04BF052385F820301B
:101B1000BAF1080F04BFBF00FFB207F00C030C2B93
:101B200003D007F00302032A01D144F00204A00706
:101B300000F1878007F00307012F08BF44F010046D
:101B4000042B08BF44F008047BE0B24202D044F00A
:101B50000304D6D8BF0032464FF00B0A0823FFB269
:101B6000B4E77F280ED9002144F00204CDE9002318
:101B700000F056FCDDE9002360B14649084410F846
:101B8000800C38B1DFF810C11CF8011B002972D09D
:101B90008142F9D144F003045F20E918013381F850
:101BA000200093E747F00207F7E7002A08BF052067
:101BB0005CE05A075AD4AB79DB065AD529690BF198
:101BC00038039BF80000C1F308011944FFF709FB33
:101BD000A8602B680026D3F80C9008F1FF33A9F118
:101BE0000207BA4613F8010F741C1F280CD92F28BE
:101BF00002D05C287FF421AF18F804302F2B3FF47B
:101C00001AAF5C2B3FF417AF2028A04434BF042444
:101C10000024012E7FF428AFB9F800302E2B7FF47A
:101C20002AAF002305F1200229F816309E428CBF0E
:101C30002E21202101330B2B02F8011BF6D144F099
:101C40002004284685F82B40FFF768FC95F82B30D8
:101C50000028AED0042809D1990603F00402A4D5C7
:101C6000002AB6D08023002085F82B3003B0BDE8D1
:101C7000F08F0520FAE7A0F14101192992D9A0F1CE
:101C8000610119299EBF203847F0010780B284E71F
:101C900022BC010832BC01082BBC01081FB5CDE9EC
:101CA000001003A814460391FEF770FF031E15DB16
:101CB0000C4A52F8231009B100200870019808B1AD
:101CC0000021017042F8230030B1012C08D100221C
:101CD00001A96846FFF790F804B010BD0B20FBE7A0
:101CE0000020F9E7300400242DE9F04190B01746B8
:101CF00004460191002800F0D48002F03F0603A9B9
:101D000001A83246FFF778F8054600284FD1039B1B
:101D100004A801990493FFF767FE20B99DF93B30B1
:101D2000002BB8BF062017F01C0F00F09A80002887
:101D300044D004283BD104A8FFF7A0FC002836D1EA
:101D400046F0080608F050F90146009020220B9852
:101D50000E30FEF7D5FE0B9800991630FEF7D0FE38
:101D60000B9BDDF80C80DA720B9998F80000FFF7F6
:101D700038FA002207464046FEF7ECFE0B9B002295
:101D800001211A775A779A77DA77039BD970F7B1DE
:101D900039460498D3F83480FFF781FA38B94146C0
:101DA0000398FEF7D6FF013F039B1F6178B1002324
:101DB00005462360284610B0BDE8F0819DF8163036
:101DC00013F0110F57D1780765D43907BAD4039FA0
:101DD00031070B997B6B48BF46F040066162236276
:101DE0003878FFF7FEF9A06001F11C000021FEF732
:101DF00085FEFB88276004F12C074FF40072E06039
:101E0000A1623846A38026746174E1616161FEF7C6
:101E10007FFEB206CED5D4F80C80B8F1000FC9D041
:101E2000039BA1685E89C4F814807602464524D3DA
:101E30000020A1610028BAD1C8F30803002BB9D053
:101E4000039E3046FEF76AFE48B300EB582201239A
:101E50003946E2617078FEF727FE0028AAD00120FB
:101E6000A5E70028A3D19DF81630DA0615D4BF07E0
:101E7000ADD5D807ABD5072099E72068A8EB0608B1
:101E8000FFF7B7F90128014603D9431CCED1012041
:101E9000CFE70220CDE7082089E7042087E702206A
:101EA00085E7092586E72DE9F04F87B01646894674
:101EB000044601930023019A05A91360FEF786FEEC
:101EC000054618BB657C0DBB237C13F00103029310
:101ED00000F09980E26804F12C0A6369D21A9642F4
:101EE00028BF164696B16169C1F30803002B7CD167
:101EF000059BB3F80A8008F1FF3818EA51281BD176
:101F000041B9A068012810D802256574284607B099
:101F1000BDE8F08FA36A1BB12046FEF70AFEF1E789
:101F2000A1692068FFF765F9ECE7431C03D10123A1
:101F3000029D6374EAE7A061DDF814B0A169584618
:101F4000FEF7ECFD0028DFD0B6F5007F08EB0007B8
:101F50002ED3BBF80A2008EB5621730A9BF8010028
:101F60009142494688BFA2EB08033A460393FEF725
:101F70009BFD0028DBD194F91020039B002A0BDA8B
:101F8000E069C01B984207D24FF40072514609EB3A
:101F90004020FEF7A9FE039B5F026369B944019AE2
:101FA000F61B3B446361019B1B683B44136099E74C
:101FB000E269BA4218D094F91030002B0BDA0123F1
:101FC00051469BF80100FEF77DFD0028AFD1237C30
:101FD00003F07F032374059801233A465146407865
:101FE000FEF762FD0028A2D1E76161694846C1F3AE
:101FF0000801C1F500775144B74228BF37463A4639
:10200000FEF772FEC9E7072580E7F7B501A9054687
:10201000FEF7DCFD044600283BD12B7C13F0400486
:1020200037D01B060CD501980123EA6905F12C0174
:102030004078FEF747FD78BB2B7C03F07F032B74C1
:1020400007F0D2FF296A07460198FEF782FE044690
:10205000F8B96E6AF37A314643F02003F372AA6846
:102060002868FEF777FDE96806F11C00FEF748FDD9
:10207000394606F11600FEF743FD01230198B474BA
:10208000F474C370FFF762F82B7C044623F040031E
:102090002B74204603B0F0BD0124FAE713B50446C3
:1020A000FFF7B3FF28B901A92046FEF78FFD00B95D
:1020B000206002B010BD2DE9F04F85B00D460446FA
:1020C00003A9FEF783FD0646E8B9667CDEB9A36A7C
:1020D000002B7BD06A1C39D11D46D4F8088002271A
:1020E00055F804BBB8F1000F28D040464FF0000A65
:1020F0000146814620680AF1010AFFF77AF80128B3
:1021000007D802266674304605B0BDE8F08F8046D9
:10211000EBE7431C01D10126F4E709F101098145F0
:10212000E6D00237BB4521BF2B4643F808ABC5F8C4
:1021300004801D46039BDB698342E8D8A36A5F45A0
:102140001F6000F2C28000232B60DCE7E768AF422B
:1021500028BF2F466761002FD5D07D1E2046294617
:10216000FEF7E7FCDDF80C800146A0614046FEF773
:10217000D5FC0028C5D0C7F30807002FC3D0B8F896
:102180000A10E269013901EA55210D18AA42BAD0B4
:1021900094F9103004F12C01002B0CDA012398F88B
:1021A00001000191FEF78EFC0028B4D1237C019937
:1021B00003F07F032374039801232A464078FEF737
:1021C00073FC06460028A6D1E5619CE7E368AB42B4
:1021D00004D2227C12F0020F08BF1D460022636960
:1021E0006261EDB90025E2686369934284BF227C95
:1021F000E360C3F3080384BF42F040022274002B63
:1022000081D0E269AA423FF47EAF94F9103004F124
:102210002C01002BCFDA0398012301914078C1E70C
:10222000039A57897F020BB3013B6A1EB3FBF7F198
:10223000B2FBF7F28A4219D37A42A1691340ED1A30
:1022400063610029CED0BD4263691ED863692B4407
:102250006361C5F30803002BC4D00398FEF75EFC4E
:1022600000283FF44EAF00EB5525BCE7A16851B9FB
:102270002068FFF74AF8012801463FF442AF481CA6
:102280003FF449AFA160A161DBE73B44A5EB070840
:1022900020686361237C9A0705D5FFF736F8054669
:1022A00020B90146D2E7FEF7A4FF05466B1C3FF4B8
:1022B00032AF012D7FF625AF039BDB69AB427FF682
:1022C00020AF2946A5614546BDE711261BE71FB58E
:1022D0000446019150B3002203A901A8FEF78CFD2A
:1022E00070B9039B204601992360FFF77DFBF8B985
:1022F00094F92B30002B0CDBA379DB0603D40520EB
:102300000023236010E0039BE1691878FEF769FF62
:10231000A060039B00212046DB88A380FFF748F8DC
:102320000428ECD00028EBD104B010BD0920FBE755
:102330000428E4D0E4E713B501A90446FEF746FCFF
:1023400000B9206002B010BD73B50D4601A9044666
:10235000FEF73CFC20B92DB901462046FFF728F8CE
:1023600002B070BD2046FFF7C5FA10F0FB06F7D1AA
:1023700029462046FEF744FC31462046FFF759F82F
:10238000042808BF0020EBE72DE9F34104469046FE
:10239000064600254F1EBD4212DA01AB01226946F6
:1023A0004046FFF780FD019B012B09D19DF80030CD
:1023B0000D2BF0D00A2B05F1010506F8013BEAD1FF
:1023C00000239D42337014BF2046184602B0BDE87A
:1023D000F08100000F4B30B59C7B012C17D89D7B02
:1023E0000024EDB25C559D7B03EB85056860987B0E
:1023F000184402739A7B501C3032C0B298733A234F
:1024000020460A704B702F23CC708B7030BD01209A
:10241000FCE700BF3C0600240022FFF7DBBF000002
:102420007F2810B506D931B1FF2812D880380A4B61
:1024300033F8100010BD084A32F8024B8BB28442C8
:1024400003D001318029F7D10B4603F18000C0B2DF
:10245000F0E70020EEE700BFC0BC01081E4B1F4A9A
:10246000B0F5805F28BF134670B5191D31F8043CE4
:102470000A46ABB1984213D331F8024C250AE6B2B2
:1024800053FA84F4A04221DA082D09D8DFE805F0D8
:1024900005090F11131517191B00C01A31F8100088
:1024A00070BDC31A03F00103C01A80B2F8E71038F8
:1024B000FBE72038F9E73038F7E71A38F5E7083056
:1024C000F3E75038F1E7A0F5E350EEE70431002DD3
:1024D000CCD102EB4603C8E7C0BD0108B2BF01087A
:1024E00070477047704770477047704773B50D4627
:1024F00016460024B44210D001AA6946084802F0EA
:102500001FFD2B68009A03EB84031A606B68019A25
:1025100003EB840301341A60ECE702B070BD00BF26
:10252000580600240B220270FF2242700022C0E9EC
:102530000122C26070470000F7B56E4D284604F0D6
:1025400011F92C7904B1AC6D2B7B6BB195F824306B
:102550007F2B09D107F0FAFD674B01221860674B0A
:102560001A700022664B1A7095F82430654FFF2BC5
:1025700037D1624B1B78002B33D0614E337883BB4D
:1025800007F0E4FD5C4B1B68C01AB0F5FA6F28D366
:102590003B7833B301235C48337002F0FEFD0646FE
:1025A00098B15A4801F0C0FE78B906F18001574849
:1025B00002F0A1F8554801F07BFE06F5C072544BBD
:1025C00006F5C2761A60534B1E600026524B01215D
:1025D00052481E603E7004F07DFF3146504804F0C2
:1025E00079FF2B7B002B34D095F82430802B30D111
:1025F00007F0ACFD404B00251B68C01A3F4BB0F5FF
:10260000FA7F1D7025D2444B1E68002E4AD1012549
:102610001D603D7007F09AFD424B314618603F48FF
:1026200004F058FF3E48294604F054FF364802F0B3
:10263000B4FD002831D03C4B00F5C0711A6E0092F9
:1026400000F5C2725B6E394800F0F8FE374800F0C2
:1026500076FD7CB1304B1B68002B35D1344A1368B2
:102660001C44B4F5967FA8BF4FF49674282CB8BFCD
:10267000282414603B7873B1234802F08EFD50B1DA
:10268000294B00F5C0711A6E009200F5C2725B6EA4
:10269000264800F0D3FE03B0F0BD2649234800F0E1
:1026A000FBFDD3E7012E0DD131461C481D603D7066
:1026B00004F010FF29461A4804F00CFFC9E702F0A5
:1026C0005FFD06E0002CD5D0002C0F48F7DD02F0AE
:1026D0004BFD0D4802F061FD0028CBD0124B00F5F8
:1026E000C0711A6E009200F5C2725B6E0F4800F066
:1026F000A5FEBFE78C700624500600244D0600247A
:102700005406002460710624D8710624580600245B
:102710000400002408000024E87006246C710624DC
:102720008071062468710624D8A10624D46B06247F
:10273000947106246EC001082DE9F0432DED028B43
:10274000ADF5445D00213B488FB002F07FFE3A4872
:1027500000F096FC394801F0B1F980B90121354803
:1027600002F0B2FD4FF4FA7007F0F2FC002131489C
:1027700002F0AAFD4FF4FA7007F0EAFCEEE73048E9
:1027800001F04EFB70B901212A4802F09DFDC820DE
:1027900007F0DEFC0021274802F096FDC82007F074
:1027A000D7FCF0E7274E18230025274A2749356034
:1027B0002248CDE90063264B01F0EEF950B33368AF
:1027C00043B336AC224FA1463268AA4244DD4FF4EF
:1027D0000172002120464FF0000817F0DDFE394657
:1027E0007F22204617F0F7FF2146772284F87F806A
:1027F0000CA8013517F0EFFF04F180000CAB154A6F
:102800004FF480718DF8A78004F50174803717F0BC
:1028100081FFD9E70121074802F056FDC82007F0E3
:1028200097FC0021034802F04FFDC82007F090FC00
:10283000F0E700BFEC700624D46B062468C60624BB
:1028400024CD062440A2062444A2062476C0010812
:1028500044BA06247CC001084946B54802F0D5FCBC
:10286000B44AB549B54855784C7813780A78017858
:1028700043EA0523407842EA04229FEDB10A00248E
:1028800041EA0021AF4803F03FFFAF4B0122009423
:1028900058781978234641EA0021AC4804F028FD15
:1028A000AB4B0122009458781978234641EA002165
:1028B000A84804F01DFD0121A44804F00BFE2146A8
:1028C000A44821AC04F006FE0CA8FFF72BFE11A8CB
:1028D000FFF728FE16A8FFF725FE1BA8FFF722FE2C
:1028E0002046FFF71FFE26A8FFF71CFE2BA8FFF7C8
:1028F00019FE30A8FFF716FE0F2002F0ABFC0222F3
:10290000ADF828000CA80A990AAB03F0CBFF102001
:1029100002F0A0FC0222ADF82C0020460B990BAB74
:1029200003F0C0FF042302220CA98B4803F0CAFF66
:10293000894804F0CFF9894802F0A6FC884801F0E4
:102940006FFCB0EE000A864801F092FC854801F069
:10295000BCFA0546834801F0C4FA834C064665B1CB
:10296000D5F8DC3005F18C017D48236001F0E6FEEE
:102970007E4B1D6004357E4B1D604EB106F18C010F
:10298000774801F0B8FE7B4B1E6004367A4B1E6020
:102990007A49734801F0BAFF7949714801F0A8FFFC
:1029A000784800F06DFB784A01239FED650A507866
:1029B00011781A46009341EA0021744803F010FF91
:1029C000734A01239FED5E0A507811781A460093EE
:1029D00041EA00216F4803F003FF6F4A01239FED96
:1029E000580A507811781A46009341EA00216B4842
:1029F00003F0F6FE6A4A01239FED510A50781178E0
:102A00001A46009341EA0021664803F0E9FE4FF4BC
:102A10008061524802F03CFC5048634902F030FCAF
:102A20004F4801F05FFC4E4802F00EF9574803F0A2
:102A30000FFF584803F00CFF584803F009FF5948AE
:102A400003F006FF0021444804F05AF9F0EE408AF2
:102A500041480121554D04F053F968EEA88A05F567
:102A6000A963A5F5CC20B0EE408AC3ED008A01F041
:102A700073FC28B128EE088A05F24C5585ED008AD2
:102A8000424B1A79002A35D01B7F7F2B32D107F0B9
:102A90005DFBA268002A00F02981821A40F2E2431D
:102AA000A2F1FA01E260994200F2198163685D4285
:102AB00003F0030103F1010305F0030563604FF028
:102AC000000358BF69423A4D043144F821201A46A8
:102AD000194655F8046B0EB1324401330131042913
:102AE000F7D133B1B2FBF3F34EF66022B2FBF3F34E
:102AF0002360A060274B1A79002A65D01B7F7F2BAB
:102B000062D1174801F010FC00285DD1154801F092
:102B1000CFF9144801F0D9F9054600284DD0D0F876
:102B2000DC300F48236001F0C3FB104B1D6041E017
:102B3000D8710624B6C00108B8C00108BAC001089F
:102B400000007A448C700624B4C001086C7106241D
:102B5000B2C001088071062404710624EC700624BA
:102B60005806002424CD0624947106240400002471
:102B7000080000240C0000241000002489C0010873
:102B80009AC00108D46B0624C2C0010844D80624A8
:102B9000C0C00108B4710624BEC0010844C60624A2
:102BA000BCC00108B06B0624ED240008586606245A
:102BB000A47106240435524B1D60524B00221A604A
:102BC00007F0C4FA504B1860504E514801F0ACFB6E
:102BD000337805464BB140B94E4801F082F920B137
:102BE00000F18C014A4801F086FD4B4B35701A7993
:102BF00052B11B7F7F2B07D1454801F090FB002885
:102C000077D0434801F07AFB444B1A795AB11B7FC5
:102C10007F2B08D13E4801F09FFB80F00100C1B23C
:102C20003B4801F087FB07F091FA22684EF66023DB
:102C3000054693FBF2F3DBB133490A68801A9842E8
:102C400016D3134433480B6001F03FF9002854D0E9
:102C5000D0F8E0102B4B2E481A6801328A42C8BFC8
:102C600001221A6019684B1E5942594101F04DFB6F
:102C70002B4F38682D1AB5F5FA7F2DD9294B1B78C3
:102C80003BBB244801F021F90646224801F029F90E
:102C90000546F6B1E8B1244B21681A68184B1C4868
:102CA0001B68099108920793D6E9388901F037FB30
:102CB0000646174801F050FB0999CDE90460281D2C
:102CC000DDE90732CDE90050CDE90289174800F06F
:102CD0008BFB07F03BFA3860FFF72EFCA3E60023DE
:102CE0006360C4E90433C4E9063302E70123636087
:102CF000FFE6074801F0F6FA86E70421AAE700BFDD
:102D000008000024AC6B0624647106244C060024E1
:102D10005806002424CD062444C60624B06B06249D
:102D2000687106246071062404000024D46B062414
:102D3000F8B56FF0F413454D0024454E05F1280019
:102D4000444F6C612C62C5E90043C5E90233FFF7CB
:102D5000E9FB05F13C00FFF7E5FB05F15800FFF743
:102D6000E1FB32463C4928462C6717F0ADF907F1E4
:102D70000800FFF7D7FB3846384F3246384917F07E
:102D8000A3F907F10800FFF7CDFB3846354F32466F
:102D9000334917F099F907F10800FFF7C3FB3846EC
:102DA000314F32462E4917F08FF907F10800FFF72F
:102DB000B9FB38462D4F3246294917F085F907F1FE
:102DC0001000FFF7AFFB07F12C00FFF7ABFB07F19B
:102DD0004000FFF7A7FB32462549384617F074F943
:102DE0002448FFF79FFB2448FFF79CFB234F244B0D
:102DF000782229463846C3E90024C3E90244C3E9DE
:102E00000444C3E9064400F093F838461D4F3246A7
:102E10001D4917F059F9294638461C4D00F028FE87
:102E200032461B49384617F04FF93946194800F029
:102E300031FF284601F0F8FA32461749284617F0C4
:102E400043F9164BC3E91844F8BD00BFEC700624E3
:102E50000000002444D80624E5240008B4710624A8
:102E6000E124000844C60624B06B06248C700624B6
:102E7000E32400086C71062480710624D46B0624B8
:102E80009471062468C60624E72400085806002426
:102E9000E924000824CD0624EB240008D8A1062448
:102EA000704700F1340300F234404A4203F8012B2A
:102EB0008342FAD17047402070478020704701203C
:102EC000704710B5044640F2344117F002F920462D
:102ED00010BD036870B50E46DB680446154698477A
:102EE000B04205D823682046DB689847013886B28F
:102EF00023682046A6809B689847A84205D8236887
:102F000020469B689847013885B2E58070BD13B5AF
:102F100004468DF807101830002104F0DBFA642312
:102F200001220DF10701204606F044FF02B010BD5A
:102F300001604FF60B71094A01820B2142600022A9
:102F400080F82410FF21C260C26180F8251002635E
:102F5000C0E90522C0E90A22704700BF18C1010874
:102F60004FF480620021383017F016BB84B0F7B5FB
:102F70000446002509AE1830271D86E80E002B46B2
:102F800013990122009504F0B3F92B460122BDF8F4
:102F90004E103846009504F0ABF93146204606F055
:102FA00081FE2946384604F095FA0A2007F0D0F849
:102FB0000121384604F08EFA0A2007F0C9F82046AD
:102FC000AE21FFF7A4FF2046D521FFF7A0FF204642
:102FD0008021FFF79CFF2046A821FFF798FF20469D
:102FE0003F21FFF794FF2046DA21FFF790FF2046AC
:102FF0001221FFF78CFF2046D321FFF788FF2946D7
:103000002046FFF784FF20464021FFF780FF20463F
:10301000A621FFF77CFF2046A421FFF778FF20467A
:103020008D21FFF774FF20461421FFF770FF204623
:10303000A121FFF76CFF2046C821FFF768FF20465B
:103040008121FFF764FF20468F21FFF760FF2046B4
:10305000D921FFF75CFF20462521FFF758FF2046C6
:10306000DB21FFF754FF20463421FFF750FFAF214B
:103070002046FFF74CFF03B0BDE8F04004B07047B6
:1030800070B5A2B00646092002F0E4F8ADF8500091
:1030900084B21E2002F0DEF8134A144B012119AD50
:1030A000ADF88040ADF882006C46ADF85200CDE935
:1030B000162308220023CDE91A1202228DF884304B
:1030C000CDE91C33CDE91E22CDE918330FCD0FC455
:1030D0000FCD0FC42B6806F10C00236016AB0ECB8E
:1030E000FFF744FF22B070BD060B0B000105060A76
:1030F00070B5044600F12C06B02529462046FFF79E
:1031000006FF013500212046FFF701FF1021204670
:10311000EDB2FFF7FCFE012104F1180004F0DAF92A
:103120003146642380222046803606F043FEB82DC7
:10313000E3D170BD083008B5FFF7DAFF08BD0C30E9
:1031400008B5FFF7D5FF08BD7F2910B511D83F2A74
:103150000FD8D40802F0070201EBC411012408447F
:1031600004FA02F290F92C1052B21BB1114380F80C
:103170002C1010BD21EA0201F9E7083008B5FFF76D
:10318000E3FF08BD2DE9F04F0E4685B0044604A9C3
:10319000A6F120059DF838B001E90C00EBB25E2BDA
:1031A00004D90026304605B0BDE8F08F03689DF8CD
:1031B0000870DB689DF809A09847A3883B449842B3
:1031C000EFDB236820469B689847E3885344984286
:1031D000E7DB0AFB05F54FF000096D00CA451DD974
:1031E000039B4FF000085B5B01934745A188E28891
:1031F00010D9019B41444A4404F1080003FA08F342
:1032000008F101081B044CBF5B468BF00103FFF77C
:103210009BFFEAE709F101090235DFE7A1882046B3
:10322000E288394489B2FFF754FEBBE7F0B585B0B8
:1032300006464C1E02AD9DF8287085E80C0014F877
:10324000011F41B10097304695E80C00FFF79AFF47
:1032500021788842F3D0084605B0F0BD30B500F5BE
:10326000876585B004460A462846094917F086FA5C
:103270000022201D11460390FFF72BFE0122054B73
:103280002946039800920CCBFFF7D0FF05B030BD64
:10329000C4C00108AC0100241FB504300C4619223B
:1032A00000210390FFF715FE0122044B21460398ED
:1032B00000920CCBFFF7BAFF04B010BD94010024BC
:1032C00030B500F58765044685B00A4628460949A9
:1032D00017F054FA201D002250210390FFF7F9FD4A
:1032E0000122054B2946039800920CCBFFF79EFF65
:1032F00005B030BDCCC00108AC01002430B500F5EC
:103300008765044685B0134628460A46094917F0E2
:1033100035FA201D382200210390FFF7DAFD012243
:10332000054B2946039800920CCBFFF77FFF05B0B1
:1033300030BD00BFD4C00108A401002430B500F5A1
:103340008765044685B0134628460A46094917F0A2
:1033500015FA201D0E2264210390FFF7BAFD012209
:10336000054B2946039800920CCBFFF75FFF05B091
:1033700030BD00BFDCC00108AC0100247FB5144E95
:1033800000F58765134B04461348002A18BF3346DF
:10339000124A002918BF02461149284617F0EEF9D3
:1033A0002846FCF7A7FF0146201D3822C1F1200165
:1033B0000390890089B2FFF78CFD0122094B294651
:1033C000009203980CCBFFF731FF04B070BD00BF33
:1033D000EFC00108F5C00108E2C00108E8C001081B
:1033E000D6C001089C01002473B504461D4616464C
:1033F0000191FFF7B5FD01992046FFF72FFF204609
:10340000DDE90812FFF79AFF31462046FFF758FF23
:1034100029462046FFF740FF2046DDE90612FFF768
:103420006DFF9DF82C209DF828102046FFF7A6FF81
:1034300004F10C00FFF75CFE02B070BD2DE9F0470F
:1034400006468EB08A46904600214FF4806238309E
:10345000341D994617F0A0F8002201272A4D204676
:103460001146FFF736FD29492046009795E80C00E4
:10347000FFF7DCFE20460E220021FFF72AFD244B39
:103480005146009720460CCBFFF7D0FE41464FF047
:103490000008132203A817F09EF941462046232274
:1034A0008DF81F80FFF715FD1A4B03A900972046E2
:1034B0000CCBFFF7BBFE169B174A1821009308A8F8
:1034C00009EB070317F026F9204638225A21FFF7A7
:1034D00000FD08A92046009795E80C00FFF7A6FE1E
:1034E000414620463822FFF7F4FC0C49204600975D
:1034F00095E80C00FFF79AFE06F10C00FFF7F8FDC7
:103500000EB0BDE8F08700BFA4010024FCC0010894
:1035100094010024AC010024DCC0010807C10108AB
:103520002DE9F043914685B00446984608464B463F
:10353000DDE90C52A3EB090C13F8011B0029F9D1AA
:1035400098F8006098F8011016FB0CF60F4636B29A
:1035500026EAE676082A76D8DFE802F06B05270B24
:1035600035453C536100B5F90020B5F902302280A1
:1035700053E02B88A988B5F902200B4462809B1B7D
:103580002380A680E780628821880390FFF7A1FC52
:103590009DF8383049460398009398E80C00FFF7EF
:1035A00045FE204605B0BDE8F083B5F90430B5F915
:1035B000021003EBD3722B88618003EB6203A3EB51
:1035C00066032380DDE76B88B5F90020ED882B4486
:1035D0005B1ACCE76B88EA8813445B1A2A88A988AF
:1035E0000A44921BC3E76B88EA8813445B1AB5F957
:1035F000042002EBD2712A8802EB6102A2EB660280
:10360000B5E7B5F90630B5F9001003EBD3726B8856
:10361000218003EB6203A3EB57036380B1E7B5F9A5
:10362000063003EBD3726B8803EB6203A3EB510309
:10363000D4E7B5F9063003EBD3726B8803EB620372
:10364000A3EB5103D3E7002323806380A380E380AF
:1036500099E70000000000002DE9F04F2DED068BEA
:1036600087B01C4603929DF86030DDE916289FED77
:10367000B64BB8F1000F0493BCBF4244C8F1000838
:1036800007EE902A02EB0803B8EEE76B07EE103A5C
:103690009FEDAF5B26EE046BB8EEC77BCDE9010171
:1036A00086EE050B27EE047BF7EEC08B87EE050B4D
:1036B000F7EEC09BB0EE680A16F012FD07EE904AD6
:1036C000B8EE67AA2AEE008AB0EE680A16F004FE89
:1036D00060EE4A8AB0EE690A16F002FD2AEE009A00
:1036E000B0EE690A16F0F8FD20EE4AAA39EE487AE3
:1036F000049B7AEE687A67EEA77AE7EE077AB0EE77
:10370000007AF4EEC77AF1EE10FA08D5B8F1B40FEA
:1037100000F3CA8007B0BDEC068BBDE8F08F002235
:1037200001276542C4F101040026BB46BA46640085
:10373000B9460492049A002A6ED107EE906A72424A
:10374000B8F1B40FF8EEE76A07EE905AB8EEE77AF0
:1037500007EE902AC5F1000266EE884AF8EEE77A95
:1037600006EE102A27EE285A66EE896AB8EEC66A77
:1037700067EE885A27EE0A7A66EE283A67EE897A6B
:1037800026EE0A6A34EEE34A74EEC54A35EEC55AAF
:10379000B5EEC04A75EEE35A40F39180F1EE10FAAF
:1037A00000F1848036EEC64AB5EEC04AF1EE10FA5A
:1037B000CCBF4FF001094FF00009F5EEC04AF1EE21
:1037C00010FA76D476EEC76AF5EEC06AF1EE10FA1A
:1037D000CCBF4FF0010A4FF0000AB5EEC05AF1EE2F
:1037E00010FA69D437EEC77AB5EEC07AF1EE10FA66
:1037F000CCBF4FF0010B4FF0000BF5EEC05AF1EECD
:1038000010FA00F19B8077EEC67AF5EEC07AF1EE01
:1038100010FACCBF01270027B9F1000F09D0039A95
:1038200002990198B218491B05930830FFF78CFCE8
:10383000059BBAF1000F09D0039A02990198B218BA
:10384000691805930830FFF77FFC059BBBF1000F5B
:1038500009D0039A02990198921B691805930830C0
:10386000FFF772FC059B4FB1039A02990198921BD6
:10387000491B05930830FFF767FC059BA6425FDBF9
:10388000013604EB4602EE4202F1010202D1A542EA
:1038900002DB0024A54255DA013502EB4502541C37
:1038A000002D7FF747AF35E7012239E74FF00109D7
:1038B00083E74FF0010A90E74FF0010B9DE7F1EE2F
:1038C00010FA32D536EEC64AB5EEC04AF1EE10FA1D
:1038D000CCBF4FF001094FF00009F5EEC04AF1EE00
:1038E00010FA25D576EEC76AF5EEC06AF1EE10FA49
:1038F000CCBF4FF0010A4FF0000AB5EEC05AF1EE0E
:1039000010FA18D537EEC77AB5EEC07AF1EE10FA94
:10391000CCBF4FF0010B4FF0000BF5EEC05AF1EEAB
:1039200010FA3FF570AF002776E7DDF81090D4E786
:103930004FF0000AE1E74FF0000BEEE701276BE7DD
:103940002246A7E71446ABE77A008BFCFA21094030
:1039500000000000008066402DE9F04F1F4685B052
:1039600014460830DDF838A0A7EB01089DF83C307C
:103970000D46AAEB0209B8F1000F0393B8BFC8F1D6
:103980000008B9F1000F0290B8BFC9F100099245D3
:103990008CBF01224FF0FF328F428CBF4FF0010BE2
:1039A0004FF0FF3B394601925246FFF7CDFBA8EBA3
:1039B0000906DDE90203BD4201D1544516D029466E
:1039C000224603930290FFF7BFFBC9F1000172008A
:1039D000B1EB460FBCBFA6EB09065D449045DDE99F
:1039E0000203E8DD019A46441444E4E705B0BDE86B
:1039F000F08F2DE9F3479DF830C005460C4616467A
:103A00001F46DDF828809DF82C90BCF1000F10D0E7
:103A1000A7422AD3B246D04509D352464B46214647
:103A200005F108000AF1010AFFF78EFBF3E7013404
:103A3000EEE7CDE90029FFF78FFF3B4632463946D6
:103A40002846CDE90089FFF787FF234642463946DD
:103A50002846CDE90089FFF77FFF234642462146ED
:103A60002846CDE90069FFF777FF02B0BDE8F0878F
:103A700000220160A0F8B426C0F8B8267047000004
:103A80001FB50023044604308DF80C30CDE9011237
:103A900001A904F0EBFF012104F1080006F080FA0F
:103AA0000122054904F10C00FEF7F8F8B0FA80F0A5
:103AB000400904B010BD00BF6FC101080022012100
:103AC00010B580F8B4260446C0F8B826FFF7D8FF32
:103AD000024618B1012084F8B40610BD0146204604
:103AE000FFF7CEFF0028F5D10123C4F8B836F4E77C
:103AF00038B590F8B5560C46114625B90623C0F8DE
:103B0000B836284638BD00F591622046FEF73CFCE9
:103B100078B12046FCF7EEFB2044A042F1D010F82B
:103B2000013C0A2B01D00D2BEBD1002300F8013D05
:103B3000F3E70546E5E790F8B53610B5044633B12E
:103B400000F59160FEF7AAFA002384F8B53610BD9F
:103B500037B5002390F8B4560446C0F8B8362DB9EE
:103B60000523C0F8B836284603B030BD90F8B53606
:103B70001BB10191FFF7DFFF0199012204F591606C
:103B8000FEF7B2F820B102230025C4F8B836EAE700
:103B9000012384F8B536E6E72DE9F043D5B00025DA
:103BA0000E46914602A89846DDE95C472560FEF77F
:103BB0008EFB002864D12368BB4256DA0EA902A806
:103BC000FEF7C2FB002850D19DF84E30002B4CD0A0
:103BD0009DF8403013F0120FEDD12E210DF14E0063
:103BE00016F00CFE05460028E5D02649FCF778FBC8
:103BF00028B125492846FCF773FB0028DBD1206853
:103C00000DF14E017F22002508EBC01016F0E3FDF8
:103C100023682E2108EBC31383F87F50206808EB3C
:103C2000C01016F0EBFD00B105703046FCF762FBEA
:103C30000146206809EB002089B1314411F8013CAC
:103C40002F2B0CD10DF14E03104A009333464FF445
:103C5000807116F05FFD236801332360ABE70DF13F
:103C60004E030B4A00933346F1E702A8FEF763FBCD
:103C700020680028D4BF0020012055B0BDE8F083A3
:103C80002846FAE795C0010850C1010855C101084E
:103C90005EC1010810B50160002104464FF4316295
:103CA000C0F8141B0430C0F8141B80F8181B16F061
:103CB00073FC204610BD2DE9F0410E4614465F21ED
:103CC000304604F1040816F079FD054638B93F2264
:103CD0003146404616F07FFD2570BDE8F081871B18
:103CE000314600262046032FA8BF03273A4616F088
:103CF00072FD3F22691C4046E65516F06CFD84F8C3
:103D00004360EAE7F0B585B0164600270F22684603
:103D10001D4616F060FD2F2168468DF80F7016F0D5
:103D20004DFD18B93060286005B0F0BD0446684606
:103D300004F8017B16F0D6FB3060204616F0D2FB6B
:103D4000F1E700002DE9F041A2B04FF0000807466E
:103D5000144602A87F2216F03EFD2D4902A88DF8D8
:103D6000878016F05FFD2A490646404616F05AFD48
:103D700027490546404616F055FD1EB9002022B0E1
:103D8000BDE8F081002DF9D00028F7D03246164664
:103D900012F8013B202BFAD02A46904612F8013B3C
:103DA000202BFAD0054601302B78202BFAD0224662
:103DB00031463846FFF77FFF3346164A482104F163
:103DC000440016F0A7FC144B144A502104F18C0057
:103DD000009616F09FFC404616F084FBC4F8DC0009
:103DE0000138B0F5C87FC9D204F1E40304F1E00260
:103DF00029463846FFF786FFD4F8E030002BBDDDBA
:103E0000D4F8E430002BB9DD012084F8E800B6E7EF
:103E100068C1010882C001086AC1010871C10108B6
:103E20000023224930B50446DDB080F81C3BC0F8C1
:103E3000143B0068FFF78CFE002834D0802201A9D3
:103E40002068FFF755FE18B3D4F8143B0B2B1FDC8A
:103E50009DF80430002BF1D0232BEFD0EC2500216E
:103E600021A82A4616F098FB21AA01A92046FFF7AF
:103E700069FF0028E2D0D4F8140B2A4621A9431C7C
:103E800005FB0040C4F8143B043016F077FBD5E77F
:103E90002068FFF750FED4F8140B0028D4BF002090
:103EA000012084F81C0B5DB030BD00BF7AC1010851
:103EB000D0F8142B42B1D0F8183B013393FBF2F148
:103EC00002FB1133C0F8183B7047D0F8143B33B1F4
:103ED000D0F8183BEC2202FB030004307047184670
:103EE0007047D0F8143B5BB1D0F8182B013292FB2D
:103EF000F3F103FB1123EC2202FB030004307047B3
:103F0000184670474368586920EAE0707047806837
:103F100070477047002307B54068019301ABFDF778
:103F2000C2FF019803B05DF804FB08B54068FEF7D6
:103F3000C2F8B0FA80F0400908BD10B504460C2163
:103F400016F0C7F8204610BD0346D0E9020230B58E
:103F5000821A5C6848BF1219651E95420CD0421C3B
:103F60001D68A2429A6005EBC00528BF121B03C959
:103F700085E8030028BF9A6030BD036870B5044629
:103F80001B690D469847236841192046DB68BDE848
:103F900070401847036870B504461B690D46984782
:103FA000236841192046DB68BDE870401847036864
:103FB00010B514469B689847231A5842584110BDC3
:103FC000074B10B504460846C4E900310021A16042
:103FD00018B1C368A360FEF76EF8204610BD00BF9D
:103FE00098C101080068704753680F2B2DE9F04312
:103FF00004468DB00D46174604D8002630460DB055
:10400000BDE8F083102202A92846FFF7D0FF06463C
:104010000028F2D0BDF80A3003A8BDF808806380FC
:10402000A4F80080FFF7DEFF606004A8FFF7DAFF66
:10403000BDF81430A060A381BDF81630E38128F0EC
:104040000203012B0BD04FF6FE73984507D0796819
:104050001029D2D910392846FFF78FFFCDE7D7F8BE
:104060000490B9F1100F31D94FF6FE73A9F1100782
:10407000984531D1012F2FD0022201A92846FFF700
:1040800096FF0028B9D0BDF80480B8F1150F20D9EB
:10409000172F1ED9162206A92846FFF788FF0028E9
:1040A000ABD0BDF818300DF11A002382FFF79AFF4C
:1040B000BDF81E30B8F1160F6061238306D0A8F159
:1040C00016012846FFF759FF002896D001232377D1
:1040D00094E7A9F11201F4E73946F2E7F0B51C22A2
:1040E00087B00D460021044616F056FA00230C2234
:1040F00028460DEB0201A383C4E90833C4E93A332F
:10410000FFF755FF10B9002007B0F0BD03A8FFF777
:1041100069FF3E4B9842F6D105A8FFF763FF3C4B81
:104120009842F0D104A8FFF75DFF2B6808305B6967
:10413000C4F8EC002846984728B12B6828465B69EC
:104140009847C4F8EC002B6828461B699847D4F8B8
:10415000EC30083098423BD8082203A92846FFF7E4
:1041600026FF0028CFD003A8FFF73CFF07460190A9
:1041700004A8FFF737FF274B02909F4206D101AA00
:1041800029462046FFF730FF88B9BCE7224B9F4203
:1041900023D12B6828461B6998470299206228463C
:1041A0006162FFF7F7FE0028ADD001236377029B21
:1041B000DB0707D52B68012203A928469B6898478F
:1041C000012805D1237F002BBDD0637F002BBAD0FF
:1041D000207F002898D0607F96E7D4F8E8600F2E03
:1041E0000EDC0C2303FB06462B68C6E90A701B692C
:1041F00028469847D4F8E83030630133C4F8E830F3
:1042000002992846FFF7C6FEBEE700BF5249464660
:1042100057415645666D742064617461000000006A
:1042200000F5CC2000F2445300F5A86283ED000AAB
:1042300000F22C5392ED007A00F5A76020EE077A89
:104240009FED095BB7EEC77A85EE076BB7EE087A8C
:10425000C7EE007AB7EEC66B83ED006AC0ED007A58
:10426000704700BFAFF30080182D4454FB21F93F85
:1042700000F5CC2000F5A86383ED000A00F22C5372
:1042800000F24450D0ED007A20EE270A9FED066B35
:10429000B7EEC00A86EE007BB7EEC77B83ED007AEF
:1042A000704700BFAFF30080182D4454FB21F93F45
:1042B00000F5CC2393F8302572B993F8311501221B
:1042C00059B900F5BA2080F88D2F03F5A5620021B9
:1042D0001160012283F83025704700F5383080F8EE
:1042E000852EF2E700F5CC22012300F5383082F864
:1042F0005035A2F83C3580F8853E704700F5CC205B
:104300004FF48073A0F83C35704700F5CC200123B2
:1043100011B180F85335704780F85135704700F57A
:10432000CC2090F85005704700F5CC2090F830056F
:104330007047000000F5CC20F6EE007A00299FEDD2
:10434000057A80F8521500F24C5047FE277AC0EDEE
:10435000007A70470000000000F5CC2090F852056C
:104360007047F7B50025044600F58047002304F5A3
:10437000405640222946C0E91855C0E9025500F5CB
:104380007C50C7F87C310C3016F006F9D6F8003FA7
:1043900069462046C7F880310123CDE90035FFF793
:1043A000D3FDD6F8F02E4FF47A631AB1B3FBF2F3D3
:1043B000534306D0002269462046CDE90023FFF78B
:1043C000C3FD0123002287F8793187F87A31C6F8D6
:1043D000EC2E86F8053F03B0F0BD0022092100F164
:1043E0001003C2600360C0E9011200F158024FF0EF
:1043F000020C0021C3E900C108339A42F7D170478B
:104400000022092100F11003C2600360C0E901121B
:1044100000F158024FF0020C0021C3E900C108333B
:104420009A42F7D170470000F8B504460025FFF71F
:10443000D4FF4BF6813704F53C3604F1680365661A
:10444000A36506F58470C4E91775FFF7C6FF06F586
:10445000B873C6E95A55C6E9583704F5BC2640F684
:10446000A17706F50470FFF7CBFF06F51E73C6F8BB
:104470007452C6F86832C6E99B7504F5C42606F581
:104480006670FFF7BDFF06F580634FF07E51204652
:10449000C6E9FC3704F5CC2303F5A462C6E9FE5552
:1044A0001160002203F224510A6003F5A5610A603D
:1044B00003F22C510A6003F23451A3F830550A601C
:1044C00003F5A7610A6003F5A8624FF08041A3F8E5
:1044D0003C55116003F244520749116003F5A9618C
:1044E0004FF07C520A6003F24C510A604FF4803264
:1044F000C3F85025F8BD00BF00803B47D0E9022338
:104500009A420BD00268416832F9132001338B4282
:10451000C36001D35B1AC360104670470022FBE7FB
:104520000246D0E90230181A44BF5368C0187047D9
:1045300038B504460D46FFF7F3FF6268531E9842F4
:104540000DD0A168B5F900504B1C20689A42A360B9
:1045500020F8115001D89B1AA360012000E0002030
:1045600038BD00002DE9F04300F53C3800F53B373D
:10457000C3B0064698F8F83007F5337723B13846CC
:104580000191FDF78BFD019901223846FDF7ACFB47
:10459000044640B1041FE4B2022C34BF01200520C0
:1045A00043B0BDE8F0830123394603A888F8F8300A
:1045B000FFF706FD2146F02206A815F0EDFF03A93E
:1045C00006A8FFF78BFD08B90520E9E706F53834A2
:1045D000079BBDF81A10C4F8783EBDF826300F9A34
:1045E000DB08C4F8701EC4F8802E4B430E99B2FB52
:1045F000F3F2C4F87C1EC4F8742EC8F80431002B02
:10460000E2D03846FDF757FD81460028DCD106F59B
:10461000BB350146274A05F5B675284615F0BCFF9F
:104620002549D4F8803E234ACDF808908B4288BFB4
:104630001346D8F80411B3FBF1F3594389460DD062
:104640000A4602AB29463846FDF72DFC18B138461C
:10465000FDF724FDB8E7029B4B45F8D1002306F196
:104660005809C6E91833029ED4F8702E760822B194
:10467000B6FBF2F302FB1363F61A0027BE4207D023
:10468000294648460235FFF753FF08B10137F5E7E1
:10469000D4F8801E0023029A0020C4F86C3E914298
:1046A00088F8F93088F8FA3028BF8B1AC8F800313A
:1046B00076E700BF00770100FF76010038B50446B9
:1046C000FFF750FF0546A8B9014604F53B304022EC
:1046D00000F5237015F060FF04F53C33002204F56B
:1046E0003834C3F8FC2004F688634FF07E521A6019
:1046F000A4F8845E38BD70B500F5CC2504460026CC
:1047000095F831355BB1FFF7D9FF04F5383440F245
:10471000011305F5A465A4F8843E2E6070BD00F574
:104720003C3004F5BA2405F2245500F58470FFF7F7
:10473000C5FF40F20113A4F88C3FEEE710B5044624
:10474000FFF7BCFF40F2011204F5CC2004F538332A
:10475000A3F8842E00F5A4634FF07E521A6000F295
:10476000245300221A600023A0F8303510BD2DE933
:10477000F04300F5804800F57D57C3B0064698F831
:1047800078310C3723B138460191FDF787FC019948
:1047900001223846FDF7A8FA044640B1041FE4B2EE
:1047A000022C34BF0120052043B0BDE8F083012373
:1047B000394603A888F87831FFF702FC2146F02239
:1047C00006A815F0E9FE03A906A8FFF787FC08B9BB
:1047D0000520E9E706F54054079BBDF81A10C4F818
:1047E000F83EBDF826300F9ADB08C4F8F01EC4F876
:1047F000002F4B430E99B2FBF3F2C4F8FC1EC4F831
:10480000F42EC8F88431002BE2D03846FDF753FC73
:1048100081460028DCD106F5FD554FF4FA520146D9
:104820000C35284615F0B8FED4F8003FD8F884219E
:10483000B3F5FA5FCDF8089028BF4FF4FA53B3FBF5
:10484000F2F35A4391460CD002AB29463846FDF7A5
:104850002AFB18B13846FDF721FCB9E7029B4B450E
:10486000F8D1002306F15809C6E91833029ED4F89E
:10487000F02E760822B1B6FBF2F302FB1363F61AB0
:104880000027BE4207D0294648460235FFF750FEB2
:1048900008B10137F5E7D4F8001F0023029A002081
:1048A000C4F8EC3E914288F8793188F87A3128BF13
:1048B0008B1AC8F8803177E738B50446FFF757FF01
:1048C0000546A0B9014604F57C5040220C3015F095
:1048D00063FE04F58043002204F54054C3F87C21B4
:1048E00004F608734FF07E521A60A4F8045F38BDD6
:1048F00010B5044600F5C42000F5667004F5CC241C
:10490000FFF7DAFF0023A4F89C3210BD10B504466F
:1049100000F5BC2000F5047004F5C424FFF7CCFFBB
:104920000023A4F8143110BD2DE9F3470546D5E95D
:1049300002239A4200F0B8802A6852F8331002EB42
:10494000C30001336A6844689342EB6024BF9B1A3A
:10495000EB6031B30129EAD105F54058640005F553
:10496000804705F57D50D8F8003FD8F8FC1E0C3084
:104970009C4228BF1C46D7F88431B4FBF3F621448F
:1049800003FB1646891BFDF796FB002840F08C8040
:10499000341BD8F8006F87F87A013444C7F8804197
:1049A000C5E705F580476200D7F88441B2FBF4F211
:1049B0006243924603D1002387F87931B7E705F5C2
:1049C000FD564FF4FA5200910C36304615F0E4FDD6
:1049D000D7F88031534528BF5346B3FBF4F35C430B
:1049E00014D005F57D506B46224631460C30FDF75C
:1049F0005AFA002858D1009B9C4255D1D7F88031F3
:104A0000A245A3EB0403C7F8803135D905F540581A
:104A100098F8043F83B305F57D59D8F8FC1E09F1D9
:104A20000C094846FDF747FB00283DD1D7F88431F3
:104A3000AAEB0402B2FBF3F25A431DD0D8F8001FD0
:104A400001908A4228BF0A46B2FBF3F253439A46CA
:104A500012D001AB524631194846FDF724FA18BB73
:104A6000019B9A4520D1D8F8002F5444924598BF15
:104A7000A2EB0A00C7F8800105F540536408D3F89B
:104A8000F02E22B1B4FBF2F302FB1343E41A4FF011
:104A9000000844458FD0314605F158000236FFF733
:104AA00047FD20B987F8790102B0BDE8F08708F129
:104AB0000108EEE72DE9F3470546D5E902239A42BE
:104AC00000F0BA802A6852F8331002EBC3000133B9
:104AD0006A6844689342EB6024BF9B1AEB6039B369
:104AE0000129EAD105F53838640005F53C3705F5AC
:104AF0003B30D8F8803ED8F87C1E00F533709C42DD
:104B000028BF1C46D7F80431B4FBF3F6214403FB5D
:104B10001646891BFDF7CFFA002840F08D80341B24
:104B2000D8F8806E87F8FA003444C7F80041C4E72B
:104B300005F53C376200D7F80441B2FBF4F262435A
:104B4000924603D1002387F8F930B6E705F5BB3666
:104B50003C4A009106F5B676304615F01DFDD7F8B3
:104B60000031534528BF5346B3FBF4F35C4315D0E3
:104B700005F53B306B462246314600F53370FDF7B4
:104B800092F9002858D1009B9C4255D1D7F80031AA
:104B9000A245A3EB0403C7F8003135D905F5383831
:104BA00098F8843E83B305F53B39D8F87C1E09F5A7
:104BB00033794846FDF77FFA00283DD1D7F8043114
:104BC000AAEB0402B2FBF3F25A431DD0D8F8801EC0
:104BD00001908A4228BF0A46B2FBF3F253439A4639
:104BE00012D001AB524631194846FDF75CF918BBAB
:104BF000019B9A4520D1D8F8802E5444924598BF05
:104C0000A2EB0A00C7F8000105F538336408D3F8B1
:104C1000702E22B1B4FBF2F302FB1343E41A4FF0FF
:104C2000000844458ED0314605F158000236FFF7A2
:104C30007FFC20B987F8F90002B0BDE8F08708F1E1
:104C40000108EEE70077010010B50446FFF732FFD8
:104C500004F53C3000F58470FFF72CFF04F5BC2010
:104C600000F50470FFF760FE04F5C420BDE81040B5
:104C700000F56670FFF758BE0B462DE9F743044672
:104C800000F540550021164618469200D5F8F07EF2
:104C900015F082FCD4E9181291424ED095F8052FF8
:104CA000002A4AD0BE4204F57C53014628BF3E4646
:104CB0002C3300EB860604F580488E42D8ED5F6AFF
:104CC0000AD0F3EC017A13ED097A37EE677AE7EE52
:104CD000267AE1EC017AEEE705F60873D3ED007A67
:104CE00077EEA67AC8ED5F7AB7EE007AD8ED5F7AF4
:104CF000D5F8EC3EF4EEC77AF1EE10FA1DDB04F5C0
:104D00007C5677EEC77A01334FF000090C36C5F8B0
:104D1000EC3EC8ED5F7A4F4504F15800E4D056F8F8
:104D2000043B09F10109F361FFF7E8FB07EE900A84
:104D3000FAEEE87A46ED017AEDE7D5F8F43ED5F8DB
:104D4000EC2E012B38BF01239A4207D30023C5F86C
:104D5000EC3E95F8043F2BBB85F8053F04F1580065
:104D6000FFF7DEFB40F6B733984218D804F58046CB
:104D700096F879319BB9C0F57960D5F8F03E0F30DF
:104D80001BB1B0FBF3F0584309D000236946CDE9CD
:104D900000302046FFF7D8F8012386F8793103B0B8
:104DA000BDE8F08304F580430022C3F87C2104F5BC
:104DB0007C5304F57C520C332C3203F1200153F860
:104DC000040B8B4242F8040BF9D1C7E70B460021D4
:104DD0002DE9F047044600F538351646184692008E
:104DE000D5F8707E15F0D8FBD4E9181291424ED058
:104DF00095F8852E002A4AD0BE4204F53B3A01467A
:104E000028BF3E460AF52B7300EB860604F53C38B6
:104E10008E42D8ED3F6A0AD0F3EC017A13ED097A9D
:104E200037EE677AE7EE267AE1EC017AEEE705F6EF
:104E30008863D3ED007A77EEA67AC8ED3F7AB7EEB5
:104E4000007AD8ED3F7AD5F86C3EF4EEC77AF1EEF1
:104E500010FA1CDB77EEC77A01330AF523764FF0A0
:104E60000009C5F86C3EC8ED3F7A4F4504F1580083
:104E7000E5D056F8043B09F10109F361FFF73EFB69
:104E800007EE900AFAEEE87A46ED017AEDE7D5F8FA
:104E9000743ED5F86C2E012B38BF01239A4207D3FC
:104EA0000023C5F86C3E95F8843EB3BB85F8853E7B
:104EB00004F15800FFF734FB48F69F4398422AD884
:104EC00004F53C3696F8F9302BBBC0F53B40D5F8DD
:104ED000703E7F301BB1B0FBF3F058431BD0D4E9D8
:104EE00002236168D31A01F1FF3548BF5B189D4268
:104EF0000ED0531C25684FF0000C9942A36005EBBF
:104F0000C20745F832C098BF5B1A786098BFA360AB
:104F1000012386F8F930BDE8F08704F53C33002220
:104F2000C3F8FC2004F53B3303F52B7203F5237320
:104F3000114653F8040B934241F8040BF9D1B7E73B
:104F40002DE9F04300F5CC2400260546894694F867
:104F50003C3590462DED028B0E6083B01660BBB1E0
:104F600004F2345304F5A762D3ED007A92ED007A8F
:104F700077EE877AB7EE007AF4EEC77AF1EE10FAA0
:104F8000A5BF83ED007A0023C3ED007A84F83C3599
:104F900094F83D3583B104F2345304F5A762D3EDA0
:104FA000007A92ED007A77EEC77AF5EEC07AF1EEEC
:104FB00010FA68D9C3ED007A94F85035002B70D000
:104FC00094F830358BB304F5A56304F22C5294F8B1
:104FD0003175D2ED007A93ED008A38EE278A9FED85
:104FE0005E7BB7EEC86A83ED008AB4EEC76BF1EE64
:104FF00010FAC0F295805A4A87F00107F7EE007A5E
:105000009FED587A1A60002384F831759F4284F826
:10501000303504F5A46347FE876A47FE277AC3ED5F
:10502000006A04F22453C3ED007A0122694628463F
:1050300000960196FFF7CAFE05F53C30012201A952
:1050400000F58470FFF7C2FE04F22452DDED017A10
:1050500004F5A46392ED007ADDED006A67EE877ACD
:1050600093ED007A04F23453E6EE877A93ED007AFA
:1050700004F5A96367EE877A93ED007A67EE877A85
:10508000C9ED007A0DE01E6005F53832002384F882
:105090003D3584F8503582F8853E05F5BA2282F810
:1050A0008D3F05F5C42994F8533509F5667743B16A
:1050B0003846FFF756F9012384F89D32002384F81F
:1050C000533505F5BC2594F8513505F5047543B104
:1050D0002846FFF746F9012389F81531002384F8A3
:1050E000513569462846012200960196FFF7C4FD16
:1050F000012201A9384604F24C54FFF7BDFD9DED95
:10510000017ADDED007A77EE877A94ED007A67EE2A
:10511000877AC8ED007A03B0BDEC028BBDE8F0835E
:10512000B0EE480A15F0D8F8F0EE408AB0EE480A22
:1051300014F0D6FF04F5A46204F2245327B982EDDB
:10514000000AC3ED008A70E7C2ED008A83ED000A11
:105150006BE700BFAFF30080182D4454FB21F93FEB
:10516000DB0FC93F0000000000F54050026E32B175
:10517000436E013393FBF2F102FB11334366704738
:1051800000F54050026E3AB1436E013B134493FB6D
:10519000F2F102FB11334366704700F54052136E83
:1051A0002BB1536E4FF4017202FB03007047184697
:1051B00070472DE9F0410C465F21204604F5C27886
:1051C00015F0FCFA054650B984F880017F2221468B
:1051D000404615F000FB84F80352BDE8F081061B41
:1051E0000027214604F5C070032EA8BF03263246CF
:1051F000264415F0F0FA7F22691C404686F880713B
:1052000015F0E9FA84F80372E7E72DE9F041182A6E
:105210004FF0000400F540560546A8BF1822884606
:1052200027463266336EBB420FDD2B1908EB0401B3
:105230004FF401720137184604F5017415F09EF918
:1052400001462846FFF7B5FFECE700237366BDE88B
:10525000F0810000202882B009D8084B03EB4002FF
:1052600013F81030507843EA002002B07047012351
:105270000C2043EA002002B0704700BFB0C1010813
:10528000143001F00DBA00BF143001F005BA00BFB0
:1052900038B500F1140504462DED028B284601F0C7
:1052A000EDF9284601F0F8F92846B0EE408A01F001
:1052B000E1F9D0ED007AF8EE677A88EE277ABDEC56
:1052C000028B84ED1B7A38BD283002F003B900BF91
:1052D00010B540F203338EB000244FF60B7240F24B
:1052E0000341ADF8083009A80123ADF81020ADF84E
:1052F00024202246ADF80C100094029907940C94D7
:10530000CDE90544CDE90A4401F0F2FF04A80123E8
:1053100022460399009401F0EBFF09A802F0CEF8B1
:1053200010B901200EB010BD04A802F0C7F8A042C9
:105330000CBF022020460EB010BD00BF2DE9F04189
:1053400003239AB04FF0010800254FF60B7407466F
:10535000CDE91438394BADF84C40CDE91053A3F1E9
:105360009F63A3F57D43CDE916581293FFF7B0FF75
:105370004045064623D0022842D040F60132304B49
:1053800007F158000BACADF82C200B991895CDF80F
:105390006480CDF84A3000F0DBF810A907F1700006
:1053A00003F0E6F9274B0FCB84E80F003A6F214654
:1053B00007F1140001F026F91AB0BDE8F0811023BE
:1053C0001F4A06A906908DF828300BAC1E4BCDF86D
:1053D0004A2007930295CDE91805CDE9080502A8F2
:1053E00002F0FCF90823029A03A92046ADF80C60EC
:1053F0008DF80E50049605930B9500F0E9F8CCE774
:1054000040F60133ADF82C4000200BACADF818305D
:1054100001210B4B42460095CDF84A302B460E95A4
:10542000CDE9180106992046CDE90C5501F060FF41
:105430002946204602F04EF8AFE700BF04020404FC
:1054400004060403E0BB01080704010B2DE9F04743
:1054500004462DED028B82B0002949D0012140F293
:10546000011200230091ADF804208DF80630354A72
:105470000127354B04F10409344904F13C0862600A
:1054800040F20272A36040F60663E16004F1280A6C
:105490002285A3872782E762276405F003F8054683
:1054A00004F058FE6946064650BB4DB304F1500067
:1054B0008DF8067004F078FF072D3ED104F1140535
:1054C0002046FFF73BFF284601F0E6F82846B0EEFD
:1054D000408A01F0CFF8D0ED007AF8EE677A88EED6
:1054E000277A84ED1B7A02B0BDEC028BBDE8F08711
:1054F00040F2011300918DF80610ADF80430B6E7C4
:1055000004F1500004F050FF072D13D04946204607
:1055100002F03AFD0EB9002DD0D15146504601F0AF
:1055200023FD4046414601F01FFD04F1120000F04A
:1055300079F9C3E7002EF0D1C0E74946204602F0D2
:1055400023FDBBE70508050905070506050A06064C
:1055500030B585B0002504460122ADF80C102B466D
:105560000399009501F0C4FE0121204601F0B2FF2D
:10557000012004F0EDFD2946204601F0ABFF01209B
:1055800004F0E6FD0121204605B0BDE8304001F001
:10559000A1BF00BF10B5C2F3002384B00C46017C4C
:1055A0008DF80D2043EA4402FA2402238DF80C20E2
:1055B00003AA009402F0AAF918B10124204604B00D
:1055C00010BD04460A2004F0C3FD204604B010BDFF
:1055D000034670B543F8042B044684B007C983E83A
:1055E0000700A37983B91A210B461E22FA252374DA
:1055F0002046ADF80C20022303AA009502F086F99C
:1056000028B1012004B070BD1B210B46EDE70A2034
:1056100004F09EFD4FF4B85200950223ADF80C2023
:10562000204603AA217C02F071F90028E9D10A2062
:1056300004F08EFD41F2027200950223ADF80C20B9
:10564000204603AA217C02F061F90028D9D10A2062
:1056500004F07EFD042200950223ADF80C202046C4
:1056600003AA217C02F052F90028CAD10A2004F0D2
:105670006FFD062200950223ADF80C20204603AAF8
:10568000217C02F043F90028BBD10A2004F060FD20
:1056900041F2082200950223ADF80C20204603AA0F
:1056A000217C02F033F90028ABD10A20064604F031
:1056B0004FFD0095022303AA217C2046ADF80C6023
:1056C00002F024F900289CD1304604F041FD0095F9
:1056D00022790C232046002A8DF80C3003AA4FF0C3
:1056E000020314BF622142218DF80D10217C02F0CB
:1056F0000DF9002885D1304604F02AFD2279D4E93D
:1057000002310B43DBB20AB943F0400362790AB1BC
:1057100043F020030E22FA258DF80D302046009527
:1057200002238DF80C2003AA217C02F0EFF8002858
:105730007FF467AF0A2004F00BFD102200950223CE
:10574000ADF80C20204603AA217C02F0DFF80028E7
:105750007FF457AF0A2004F0FBFC122100950223CE
:10576000ADF80C1003AA217C204602F0CFF80028E7
:105770007FF447AF0A2004F0EBFC01220921204608
:10578000FFF708FF003818BF01203BE7F0B51023F2
:1057900087B0234C012200250126002702A92046BC
:1057A0000195CDE902234FF48052CDE904670EF054
:1057B00011FA642005F056FB02A94FF480522046EE
:1057C000CDE9046702261027CDE902670EF002FA40
:1057D0000322102302A92046CDE90223002304223C
:1057E000CDE904234FF480520EF0F4F940F2322355
:1057F000042202A9019310232046CDE90223019A35
:10580000012305924FF4805204930EF0E3F940F621
:10581000060120460EF0FEF9284607B0F0BD00BF95
:1058200070D806241C4B00221C494FF0400C30B5A8
:10583000054689B00220596007219A601A62012446
:10584000DA620A224FF4006EDC6006922022CDE973
:10585000000104200821CDE9020103201021CDE937
:10586000040108206946C3E904024FF4C072181D00
:10587000C3E906C24FF48052C3E909E20EF080F991
:1058800038B92846FFF782FF003818BF012009B059
:1058900030BD204609B030BD6CD8062440410052CE
:1058A000614A0021D0B513688EB00A91002B40F0F8
:1058B000B9805E4B01214FF683700C2411600221E8
:1058C000D3F8D4200026032742F48052C3F8D42012
:1058D000D3F8D42002F480520092009AD3F8E0204A
:1058E00042F01002C3F8E020D3F8E02002F01002EA
:1058F0000192019AD3F8E02042F04002C3F8E02080
:10590000D3F8E02002F040020292029AD3F8E0209D
:1059100042F00802C3F8E020D3F8E02002F00802C9
:105920000392039AD3F8E02042F48072C3F8E02097
:10593000D3F8E02002F480720492049AD3F8E020B5
:1059400042F08002C3F8E020D3F8E02002F08002A9
:105950000592059AD3F8E02042F02002C3F8E02037
:10596000D3F8E02002F020020692069AD3F8E02055
:1059700042F00402C3F8E020D3F8E0300C9403F0C6
:10598000040307930323079A0B93CDE9080108A9A1
:10599000274807F0FBFB48F23712022308A92548E5
:1059A0000C94CDE90823CDE90A6707F0EFFB4CF230
:1059B0000372022308A920480C94CDE90823CDE9FD
:1059C0000A6707F0E3FB40F2FF62022308A91B48C5
:1059D0000C94CDE90823CDE90A6707F0D7FB4FF611
:1059E0000C72022308A916480C94CDE90823CDE9CE
:1059F0000A6707F0CBFB4FF63F02022308A91148C4
:105A00000C94CDE90823CDE90A6707F0BFFB2022FB
:105A1000022308A90A480C94CDE90A67CDE90823B6
:105A200007F0B4FB0EB0D0BD68D80624004402587D
:105A30000010025800180258000C025800200258AA
:105A4000001C0258001402582DE9F04FDFF81084B2
:105A500006460D46144608F118002DED028B89B05C
:105A600000AF02F07DFFD8F8183073B3D8F81C30BF
:105A7000D8F80490002B43690BBF4FF0080A4FF091
:105A8000100A4FF0020B4FF0040BB9F1000F2AD0AF
:105A9000A200EA46012B02F1070222F00702ADEB59
:105AA000020D6846ADEB020D694600F03F81022B06
:105AB00000F0D680002B6FD02246C847D546243749
:105AC000BD46BDEC028BBDE8F08FD8F81C30002B32
:105AD000F5D0D8F804904FF0080A4FF0020B436954
